{
  "contractName": "ItargoNFT",
  "abi": [
    {
      "anonymous": false,
      "inputs": [
        {
          "indexed": true,
          "internalType": "address",
          "name": "owner",
          "type": "address"
        },
        {
          "indexed": true,
          "internalType": "address",
          "name": "approved",
          "type": "address"
        },
        {
          "indexed": true,
          "internalType": "uint256",
          "name": "tokenId",
          "type": "uint256"
        }
      ],
      "name": "Approval",
      "type": "event"
    },
    {
      "anonymous": false,
      "inputs": [
        {
          "indexed": true,
          "internalType": "address",
          "name": "owner",
          "type": "address"
        },
        {
          "indexed": true,
          "internalType": "address",
          "name": "operator",
          "type": "address"
        },
        {
          "indexed": false,
          "internalType": "bool",
          "name": "approved",
          "type": "bool"
        }
      ],
      "name": "ApprovalForAll",
      "type": "event"
    },
    {
      "anonymous": false,
      "inputs": [
        {
          "indexed": true,
          "internalType": "address",
          "name": "previousOwner",
          "type": "address"
        },
        {
          "indexed": true,
          "internalType": "address",
          "name": "newOwner",
          "type": "address"
        }
      ],
      "name": "OwnershipTransferred",
      "type": "event"
    },
    {
      "anonymous": false,
      "inputs": [
        {
          "indexed": true,
          "internalType": "address",
          "name": "from",
          "type": "address"
        },
        {
          "indexed": true,
          "internalType": "address",
          "name": "to",
          "type": "address"
        },
        {
          "indexed": true,
          "internalType": "uint256",
          "name": "tokenId",
          "type": "uint256"
        }
      ],
      "name": "Transfer",
      "type": "event"
    },
    {
      "inputs": [
        {
          "internalType": "address",
          "name": "to",
          "type": "address"
        },
        {
          "internalType": "uint256",
          "name": "tokenId",
          "type": "uint256"
        }
      ],
      "name": "approve",
      "outputs": [],
      "stateMutability": "nonpayable",
      "type": "function"
    },
    {
      "inputs": [
        {
          "internalType": "address",
          "name": "owner",
          "type": "address"
        }
      ],
      "name": "balanceOf",
      "outputs": [
        {
          "internalType": "uint256",
          "name": "",
          "type": "uint256"
        }
      ],
      "stateMutability": "view",
      "type": "function",
      "constant": true
    },
    {
      "inputs": [
        {
          "internalType": "uint256",
          "name": "tokenId",
          "type": "uint256"
        }
      ],
      "name": "getApproved",
      "outputs": [
        {
          "internalType": "address",
          "name": "",
          "type": "address"
        }
      ],
      "stateMutability": "view",
      "type": "function",
      "constant": true
    },
    {
      "inputs": [
        {
          "internalType": "address",
          "name": "owner",
          "type": "address"
        },
        {
          "internalType": "address",
          "name": "operator",
          "type": "address"
        }
      ],
      "name": "isApprovedForAll",
      "outputs": [
        {
          "internalType": "bool",
          "name": "",
          "type": "bool"
        }
      ],
      "stateMutability": "view",
      "type": "function",
      "constant": true
    },
    {
      "inputs": [],
      "name": "name",
      "outputs": [
        {
          "internalType": "string",
          "name": "",
          "type": "string"
        }
      ],
      "stateMutability": "view",
      "type": "function",
      "constant": true
    },
    {
      "inputs": [],
      "name": "owner",
      "outputs": [
        {
          "internalType": "address",
          "name": "",
          "type": "address"
        }
      ],
      "stateMutability": "view",
      "type": "function",
      "constant": true
    },
    {
      "inputs": [
        {
          "internalType": "uint256",
          "name": "tokenId",
          "type": "uint256"
        }
      ],
      "name": "ownerOf",
      "outputs": [
        {
          "internalType": "address",
          "name": "",
          "type": "address"
        }
      ],
      "stateMutability": "view",
      "type": "function",
      "constant": true
    },
    {
      "inputs": [],
      "name": "renounceOwnership",
      "outputs": [],
      "stateMutability": "nonpayable",
      "type": "function"
    },
    {
      "inputs": [
        {
          "internalType": "address",
          "name": "from",
          "type": "address"
        },
        {
          "internalType": "address",
          "name": "to",
          "type": "address"
        },
        {
          "internalType": "uint256",
          "name": "tokenId",
          "type": "uint256"
        }
      ],
      "name": "safeTransferFrom",
      "outputs": [],
      "stateMutability": "nonpayable",
      "type": "function"
    },
    {
      "inputs": [
        {
          "internalType": "address",
          "name": "from",
          "type": "address"
        },
        {
          "internalType": "address",
          "name": "to",
          "type": "address"
        },
        {
          "internalType": "uint256",
          "name": "tokenId",
          "type": "uint256"
        },
        {
          "internalType": "bytes",
          "name": "_data",
          "type": "bytes"
        }
      ],
      "name": "safeTransferFrom",
      "outputs": [],
      "stateMutability": "nonpayable",
      "type": "function"
    },
    {
      "inputs": [
        {
          "internalType": "address",
          "name": "operator",
          "type": "address"
        },
        {
          "internalType": "bool",
          "name": "approved",
          "type": "bool"
        }
      ],
      "name": "setApprovalForAll",
      "outputs": [],
      "stateMutability": "nonpayable",
      "type": "function"
    },
    {
      "inputs": [
        {
          "internalType": "bytes4",
          "name": "interfaceId",
          "type": "bytes4"
        }
      ],
      "name": "supportsInterface",
      "outputs": [
        {
          "internalType": "bool",
          "name": "",
          "type": "bool"
        }
      ],
      "stateMutability": "view",
      "type": "function",
      "constant": true
    },
    {
      "inputs": [],
      "name": "symbol",
      "outputs": [
        {
          "internalType": "string",
          "name": "",
          "type": "string"
        }
      ],
      "stateMutability": "view",
      "type": "function",
      "constant": true
    },
    {
      "inputs": [
        {
          "internalType": "uint256",
          "name": "tokenId",
          "type": "uint256"
        }
      ],
      "name": "tokenURI",
      "outputs": [
        {
          "internalType": "string",
          "name": "",
          "type": "string"
        }
      ],
      "stateMutability": "view",
      "type": "function",
      "constant": true
    },
    {
      "inputs": [
        {
          "internalType": "address",
          "name": "from",
          "type": "address"
        },
        {
          "internalType": "address",
          "name": "to",
          "type": "address"
        },
        {
          "internalType": "uint256",
          "name": "tokenId",
          "type": "uint256"
        }
      ],
      "name": "transferFrom",
      "outputs": [],
      "stateMutability": "nonpayable",
      "type": "function"
    },
    {
      "inputs": [
        {
          "internalType": "address",
          "name": "newOwner",
          "type": "address"
        }
      ],
      "name": "transferOwnership",
      "outputs": [],
      "stateMutability": "nonpayable",
      "type": "function"
    },
    {
      "inputs": [
        {
          "internalType": "string",
          "name": "name",
          "type": "string"
        },
        {
          "internalType": "string",
          "name": "symbol",
          "type": "string"
        }
      ],
      "name": "initialize",
      "outputs": [],
      "stateMutability": "nonpayable",
      "type": "function"
    },
    {
      "inputs": [
        {
          "internalType": "uint256",
          "name": "tokenId",
          "type": "uint256"
        },
        {
          "internalType": "address",
          "name": "creator",
          "type": "address"
        },
        {
          "internalType": "address",
          "name": "receiver",
          "type": "address"
        },
        {
          "internalType": "string",
          "name": "_tokenURI",
          "type": "string"
        }
      ],
      "name": "lazyMint",
      "outputs": [],
      "stateMutability": "nonpayable",
      "type": "function"
    },
    {
      "inputs": [
        {
          "internalType": "string",
          "name": "doc",
          "type": "string"
        },
        {
          "internalType": "uint256",
          "name": "tokenId",
          "type": "uint256"
        }
      ],
      "name": "setTokenDocs",
      "outputs": [],
      "stateMutability": "nonpayable",
      "type": "function"
    },
    {
      "inputs": [
        {
          "internalType": "uint256",
          "name": "tokenId",
          "type": "uint256"
        }
      ],
      "name": "docOf",
      "outputs": [
        {
          "internalType": "string",
          "name": "",
          "type": "string"
        }
      ],
      "stateMutability": "view",
      "type": "function",
      "constant": true
    },
    {
      "inputs": [
        {
          "internalType": "uint256",
          "name": "tokenId",
          "type": "uint256"
        }
      ],
      "name": "creatorOf",
      "outputs": [
        {
          "internalType": "address",
          "name": "",
          "type": "address"
        }
      ],
      "stateMutability": "view",
      "type": "function",
      "constant": true
    },
    {
      "inputs": [],
      "name": "count",
      "outputs": [
        {
          "internalType": "uint256",
          "name": "",
          "type": "uint256"
        }
      ],
      "stateMutability": "view",
      "type": "function",
      "constant": true
    }
  ],
  "bytecode": "0x608060405234801561001057600080fd5b50613b8e806100206000396000f3fe608060405234801561001057600080fd5b50600436106101425760003560e01c806370a08231116100b8578063a22cb4651161007c578063a22cb46514610375578063b88d4fde14610391578063c87b56dd146103ad578063e985e9c5146103dd578063eb6373951461040d578063f2fde38b1461042957610142565b806370a08231146102cf578063715018a6146102ff5780638da5cb5b1461030957806395d89b411461032757806397b47a921461034557610142565b806323b872dd1161010a57806323b872dd146101ff5780633c92779f1461021b57806342842e0e146102375780634cd88b7614610253578063589a17431461026f5780636352211e1461029f57610142565b806301ffc9a71461014757806306661abd1461017757806306fdde0314610195578063081812fc146101b3578063095ea7b3146101e3575b600080fd5b610161600480360381019061015c919061296f565b610445565b60405161016e9190613446565b60405180910390f35b61017f610527565b60405161018c9190613723565b60405180910390f35b61019d610538565b6040516101aa9190613461565b60405180910390f35b6101cd60048036038101906101c89190612a81565b6105ca565b6040516101da91906133df565b60405180910390f35b6101fd60048036038101906101f89190612933565b61064f565b005b6102196004803603810190610214919061282d565b610767565b005b61023560048036038101906102309190612a2d565b6107c7565b005b610251600480360381019061024c919061282d565b6108b7565b005b61026d600480360381019061026891906129c1565b6108d7565b005b61028960048036038101906102849190612a81565b6109bc565b60405161029691906133df565b60405180910390f35b6102b960048036038101906102b49190612a81565b6109f9565b6040516102c691906133df565b60405180910390f35b6102e960048036038101906102e491906127c8565b610aab565b6040516102f69190613723565b60405180910390f35b610307610b63565b005b610311610ca0565b60405161031e91906133df565b60405180910390f35b61032f610cca565b60405161033c9190613461565b60405180910390f35b61035f600480360381019061035a9190612a81565b610d5c565b60405161036c9190613461565b60405180910390f35b61038f600480360381019061038a91906128f7565b610e01565b005b6103ab60048036038101906103a6919061287c565b610f82565b005b6103c760048036038101906103c29190612a81565b610fe4565b6040516103d49190613461565b60405180910390f35b6103f760048036038101906103f291906127f1565b611136565b6040516104049190613446565b60405180910390f35b61042760048036038101906104229190612aaa565b6111ca565b005b610443600480360381019061043e91906127c8565b61127f565b005b60007f80ac58cd000000000000000000000000000000000000000000000000000000007bffffffffffffffffffffffffffffffffffffffffffffffffffffffff1916827bffffffffffffffffffffffffffffffffffffffffffffffffffffffff1916148061051057507f5b5e139f000000000000000000000000000000000000000000000000000000007bffffffffffffffffffffffffffffffffffffffffffffffffffffffff1916827bffffffffffffffffffffffffffffffffffffffffffffffffffffffff1916145b80610520575061051f8261142b565b5b9050919050565b600061053360fb611495565b905090565b60606065805461054790613983565b80601f016020809104026020016040519081016040528092919081815260200182805461057390613983565b80156105c05780601f10610595576101008083540402835291602001916105c0565b820191906000526020600020905b8154815290600101906020018083116105a357829003601f168201915b5050505050905090565b60006105d5826114a3565b610614576040517f08c379a000000000000000000000000000000000000000000000000000000000815260040161060b90613663565b60405180910390fd5b6069600083815260200190815260200160002060009054906101000a900473ffffffffffffffffffffffffffffffffffffffff169050919050565b600061065a826109f9565b90508073ffffffffffffffffffffffffffffffffffffffff168373ffffffffffffffffffffffffffffffffffffffff1614156106cb576040517f08c379a00000000000000000000000000000000000000000000000000000000081526004016106c2906136e3565b60405180910390fd5b8073ffffffffffffffffffffffffffffffffffffffff166106ea61150f565b73ffffffffffffffffffffffffffffffffffffffff16148061071957506107188161071361150f565b611136565b5b610758576040517f08c379a000000000000000000000000000000000000000000000000000000000815260040161074f90613583565b60405180910390fd5b6107628383611517565b505050565b61077861077261150f565b826115d0565b6107b7576040517f08c379a00000000000000000000000000000000000000000000000000000000081526004016107ae90613703565b60405180910390fd5b6107c28383836116ae565b505050565b6107cf61150f565b73ffffffffffffffffffffffffffffffffffffffff166107ed610ca0565b73ffffffffffffffffffffffffffffffffffffffff1614610843576040517f08c379a000000000000000000000000000000000000000000000000000000000815260040161083a90613683565b60405180910390fd5b61084c816114a3565b61088b576040517f08c379a000000000000000000000000000000000000000000000000000000000815260040161088290613483565b60405180910390fd5b8160fd600083815260200190815260200160002090805190602001906108b29291906125ec565b505050565b6108d283838360405180602001604052806000815250610f82565b505050565b600060019054906101000a900460ff16806108fd575060008054906101000a900460ff16155b61093c576040517f08c379a000000000000000000000000000000000000000000000000000000000815260040161093390613603565b60405180910390fd5b60008060019054906101000a900460ff16159050801561098c576001600060016101000a81548160ff02191690831515021790555060016000806101000a81548160ff0219169083151502179055505b610996838361190a565b80156109b75760008060016101000a81548160ff0219169083151502179055505b505050565b600060fc600083815260200190815260200160002060009054906101000a900473ffffffffffffffffffffffffffffffffffffffff169050919050565b6000806067600084815260200190815260200160002060009054906101000a900473ffffffffffffffffffffffffffffffffffffffff169050600073ffffffffffffffffffffffffffffffffffffffff168173ffffffffffffffffffffffffffffffffffffffff161415610aa2576040517f08c379a0000000000000000000000000000000000000000000000000000000008152600401610a99906135c3565b60405180910390fd5b80915050919050565b60008073ffffffffffffffffffffffffffffffffffffffff168273ffffffffffffffffffffffffffffffffffffffff161415610b1c576040517f08c379a0000000000000000000000000000000000000000000000000000000008152600401610b13906135a3565b60405180910390fd5b606860008373ffffffffffffffffffffffffffffffffffffffff1673ffffffffffffffffffffffffffffffffffffffff168152602001908152602001600020549050919050565b610b6b61150f565b73ffffffffffffffffffffffffffffffffffffffff16610b89610ca0565b73ffffffffffffffffffffffffffffffffffffffff1614610bdf576040517f08c379a0000000000000000000000000000000000000000000000000000000008152600401610bd690613683565b60405180910390fd5b600073ffffffffffffffffffffffffffffffffffffffff1660c960009054906101000a900473ffffffffffffffffffffffffffffffffffffffff1673ffffffffffffffffffffffffffffffffffffffff167f8be0079c531659141344cd1fd0a4f28419497f9722a3daafe3b4186f6b6457e060405160405180910390a3600060c960006101000a81548173ffffffffffffffffffffffffffffffffffffffff021916908373ffffffffffffffffffffffffffffffffffffffff160217905550565b600060c960009054906101000a900473ffffffffffffffffffffffffffffffffffffffff16905090565b606060668054610cd990613983565b80601f0160208091040260200160405190810160405280929190818152602001828054610d0590613983565b8015610d525780601f10610d2757610100808354040283529160200191610d52565b820191906000526020600020905b815481529060010190602001808311610d3557829003601f168201915b5050505050905090565b606060fd60008381526020019081526020016000208054610d7c90613983565b80601f0160208091040260200160405190810160405280929190818152602001828054610da890613983565b8015610df55780601f10610dca57610100808354040283529160200191610df5565b820191906000526020600020905b815481529060010190602001808311610dd857829003601f168201915b50505050509050919050565b610e0961150f565b73ffffffffffffffffffffffffffffffffffffffff168273ffffffffffffffffffffffffffffffffffffffff161415610e77576040517f08c379a0000000000000000000000000000000000000000000000000000000008152600401610e6e90613543565b60405180910390fd5b80606a6000610e8461150f565b73ffffffffffffffffffffffffffffffffffffffff1673ffffffffffffffffffffffffffffffffffffffff16815260200190815260200160002060008473ffffffffffffffffffffffffffffffffffffffff1673ffffffffffffffffffffffffffffffffffffffff16815260200190815260200160002060006101000a81548160ff0219169083151502179055508173ffffffffffffffffffffffffffffffffffffffff16610f3161150f565b73ffffffffffffffffffffffffffffffffffffffff167f17307eab39ab6107e8899845ad3d59bd9653f200f220920489ca2b5937696c3183604051610f769190613446565b60405180910390a35050565b610f93610f8d61150f565b836115d0565b610fd2576040517f08c379a0000000000000000000000000000000000000000000000000000000008152600401610fc990613703565b60405180910390fd5b610fde84848484611a11565b50505050565b6060610fef826114a3565b61102e576040517f08c379a000000000000000000000000000000000000000000000000000000000815260040161102590613643565b60405180910390fd5b600060976000848152602001908152602001600020805461104e90613983565b80601f016020809104026020016040519081016040528092919081815260200182805461107a90613983565b80156110c75780601f1061109c576101008083540402835291602001916110c7565b820191906000526020600020905b8154815290600101906020018083116110aa57829003601f168201915b5050505050905060006110d8611a6d565b90506000815114156110ee578192505050611131565b60008251111561112357808260405160200161110b9291906133bb565b60405160208183030381529060405292505050611131565b61112c84611a84565b925050505b919050565b6000606a60008473ffffffffffffffffffffffffffffffffffffffff1673ffffffffffffffffffffffffffffffffffffffff16815260200190815260200160002060008373ffffffffffffffffffffffffffffffffffffffff1673ffffffffffffffffffffffffffffffffffffffff16815260200190815260200160002060009054906101000a900460ff16905092915050565b6111d261150f565b73ffffffffffffffffffffffffffffffffffffffff166111f0610ca0565b73ffffffffffffffffffffffffffffffffffffffff1614611246576040517f08c379a000000000000000000000000000000000000000000000000000000000815260040161123d90613683565b60405180910390fd5b6112508385611b2b565b61125a8385611cf9565b6112648482611d97565b61126f8383866108b7565b61127960fb611e0b565b50505050565b61128761150f565b73ffffffffffffffffffffffffffffffffffffffff166112a5610ca0565b73ffffffffffffffffffffffffffffffffffffffff16146112fb576040517f08c379a00000000000000000000000000000000000000000000000000000000081526004016112f290613683565b60405180910390fd5b600073ffffffffffffffffffffffffffffffffffffffff168173ffffffffffffffffffffffffffffffffffffffff16141561136b576040517f08c379a0000000000000000000000000000000000000000000000000000000008152600401611362906134c3565b60405180910390fd5b8073ffffffffffffffffffffffffffffffffffffffff1660c960009054906101000a900473ffffffffffffffffffffffffffffffffffffffff1673ffffffffffffffffffffffffffffffffffffffff167f8be0079c531659141344cd1fd0a4f28419497f9722a3daafe3b4186f6b6457e060405160405180910390a38060c960006101000a81548173ffffffffffffffffffffffffffffffffffffffff021916908373ffffffffffffffffffffffffffffffffffffffff16021790555050565b60007f01ffc9a7000000000000000000000000000000000000000000000000000000007bffffffffffffffffffffffffffffffffffffffffffffffffffffffff1916827bffffffffffffffffffffffffffffffffffffffffffffffffffffffff1916149050919050565b600081600001549050919050565b60008073ffffffffffffffffffffffffffffffffffffffff166067600084815260200190815260200160002060009054906101000a900473ffffffffffffffffffffffffffffffffffffffff1673ffffffffffffffffffffffffffffffffffffffff1614159050919050565b600033905090565b816069600083815260200190815260200160002060006101000a81548173ffffffffffffffffffffffffffffffffffffffff021916908373ffffffffffffffffffffffffffffffffffffffff160217905550808273ffffffffffffffffffffffffffffffffffffffff1661158a836109f9565b73ffffffffffffffffffffffffffffffffffffffff167f8c5be1e5ebec7d5bd14f71427d1e84f3dd0314c0f7b2291e5b200ac8c7c3b92560405160405180910390a45050565b60006115db826114a3565b61161a576040517f08c379a000000000000000000000000000000000000000000000000000000000815260040161161190613563565b60405180910390fd5b6000611625836109f9565b90508073ffffffffffffffffffffffffffffffffffffffff168473ffffffffffffffffffffffffffffffffffffffff16148061169457508373ffffffffffffffffffffffffffffffffffffffff1661167c846105ca565b73ffffffffffffffffffffffffffffffffffffffff16145b806116a557506116a48185611136565b5b91505092915050565b8273ffffffffffffffffffffffffffffffffffffffff166116ce826109f9565b73ffffffffffffffffffffffffffffffffffffffff1614611724576040517f08c379a000000000000000000000000000000000000000000000000000000000815260040161171b906136a3565b60405180910390fd5b600073ffffffffffffffffffffffffffffffffffffffff168273ffffffffffffffffffffffffffffffffffffffff161415611794576040517f08c379a000000000000000000000000000000000000000000000000000000000815260040161178b90613523565b60405180910390fd5b61179f838383611e21565b6117aa600082611517565b6001606860008573ffffffffffffffffffffffffffffffffffffffff1673ffffffffffffffffffffffffffffffffffffffff16815260200190815260200160002060008282546117fa9190613899565b925050819055506001606860008473ffffffffffffffffffffffffffffffffffffffff1673ffffffffffffffffffffffffffffffffffffffff16815260200190815260200160002060008282546118519190613812565b92505081905550816067600083815260200190815260200160002060006101000a81548173ffffffffffffffffffffffffffffffffffffffff021916908373ffffffffffffffffffffffffffffffffffffffff160217905550808273ffffffffffffffffffffffffffffffffffffffff168473ffffffffffffffffffffffffffffffffffffffff167fddf252ad1be2c89b69c2b068fc378daa952ba7f163c4a11628f55a4df523b3ef60405160405180910390a4505050565b600060019054906101000a900460ff1680611930575060008054906101000a900460ff16155b61196f576040517f08c379a000000000000000000000000000000000000000000000000000000000815260040161196690613603565b60405180910390fd5b60008060019054906101000a900460ff1615905080156119bf576001600060016101000a81548160ff02191690831515021790555060016000806101000a81548160ff0219169083151502179055505b6119c7611e26565b6119cf611eff565b6119d98383611fd8565b6119e16120e1565b6119eb83836121ba565b8015611a0c5760008060016101000a81548160ff0219169083151502179055505b505050565b611a1c8484846116ae565b611a2884848484612295565b611a67576040517f08c379a0000000000000000000000000000000000000000000000000000000008152600401611a5e906134a3565b60405180910390fd5b50505050565b606060405180602001604052806000815250905090565b6060611a8f826114a3565b611ace576040517f08c379a0000000000000000000000000000000000000000000000000000000008152600401611ac5906136c3565b60405180910390fd5b6000611ad8611a6d565b90506000815111611af85760405180602001604052806000815250611b23565b80611b028461242c565b604051602001611b139291906133bb565b6040516020818303038152906040525b915050919050565b600073ffffffffffffffffffffffffffffffffffffffff168273ffffffffffffffffffffffffffffffffffffffff161415611b9b576040517f08c379a0000000000000000000000000000000000000000000000000000000008152600401611b9290613623565b60405180910390fd5b611ba4816114a3565b15611be4576040517f08c379a0000000000000000000000000000000000000000000000000000000008152600401611bdb906134e3565b60405180910390fd5b611bf060008383611e21565b6001606860008473ffffffffffffffffffffffffffffffffffffffff1673ffffffffffffffffffffffffffffffffffffffff1681526020019081526020016000206000828254611c409190613812565b92505081905550816067600083815260200190815260200160002060006101000a81548173ffffffffffffffffffffffffffffffffffffffff021916908373ffffffffffffffffffffffffffffffffffffffff160217905550808273ffffffffffffffffffffffffffffffffffffffff16600073ffffffffffffffffffffffffffffffffffffffff167fddf252ad1be2c89b69c2b068fc378daa952ba7f163c4a11628f55a4df523b3ef60405160405180910390a45050565b611d02816114a3565b611d41576040517f08c379a0000000000000000000000000000000000000000000000000000000008152600401611d3890613503565b60405180910390fd5b8160fc600083815260200190815260200160002060006101000a81548173ffffffffffffffffffffffffffffffffffffffff021916908373ffffffffffffffffffffffffffffffffffffffff1602179055505050565b611da0826114a3565b611ddf576040517f08c379a0000000000000000000000000000000000000000000000000000000008152600401611dd6906135e3565b60405180910390fd5b80609760008481526020019081526020016000209080519060200190611e069291906125ec565b505050565b6001816000016000828254019250508190555050565b505050565b600060019054906101000a900460ff1680611e4c575060008054906101000a900460ff16155b611e8b576040517f08c379a0000000000000000000000000000000000000000000000000000000008152600401611e8290613603565b60405180910390fd5b60008060019054906101000a900460ff161590508015611edb576001600060016101000a81548160ff02191690831515021790555060016000806101000a81548160ff0219169083151502179055505b8015611efc5760008060016101000a81548160ff0219169083151502179055505b50565b600060019054906101000a900460ff1680611f25575060008054906101000a900460ff16155b611f64576040517f08c379a0000000000000000000000000000000000000000000000000000000008152600401611f5b90613603565b60405180910390fd5b60008060019054906101000a900460ff161590508015611fb4576001600060016101000a81548160ff02191690831515021790555060016000806101000a81548160ff0219169083151502179055505b8015611fd55760008060016101000a81548160ff0219169083151502179055505b50565b600060019054906101000a900460ff1680611ffe575060008054906101000a900460ff16155b61203d576040517f08c379a000000000000000000000000000000000000000000000000000000000815260040161203490613603565b60405180910390fd5b60008060019054906101000a900460ff16159050801561208d576001600060016101000a81548160ff02191690831515021790555060016000806101000a81548160ff0219169083151502179055505b82606590805190602001906120a39291906125ec565b5081606690805190602001906120ba9291906125ec565b5080156120dc5760008060016101000a81548160ff0219169083151502179055505b505050565b600060019054906101000a900460ff1680612107575060008054906101000a900460ff16155b612146576040517f08c379a000000000000000000000000000000000000000000000000000000000815260040161213d90613603565b60405180910390fd5b60008060019054906101000a900460ff161590508015612196576001600060016101000a81548160ff02191690831515021790555060016000806101000a81548160ff0219169083151502179055505b80156121b75760008060016101000a81548160ff0219169083151502179055505b50565b600060019054906101000a900460ff16806121e0575060008054906101000a900460ff16155b61221f576040517f08c379a000000000000000000000000000000000000000000000000000000000815260040161221690613603565b60405180910390fd5b60008060019054906101000a900460ff16159050801561226f576001600060016101000a81548160ff02191690831515021790555060016000806101000a81548160ff0219169083151502179055505b80156122905760008060016101000a81548160ff0219169083151502179055505b505050565b60006122b68473ffffffffffffffffffffffffffffffffffffffff166125d9565b1561241f578373ffffffffffffffffffffffffffffffffffffffff1663150b7a026122df61150f565b8786866040518563ffffffff1660e01b815260040161230194939291906133fa565b602060405180830381600087803b15801561231b57600080fd5b505af192505050801561234c57506040513d601f19601f820116820180604052508101906123499190612998565b60015b6123cf573d806000811461237c576040519150601f19603f3d011682016040523d82523d6000602084013e612381565b606091505b506000815114156123c7576040517f08c379a00000000000000000000000000000000000000000000000000000000081526004016123be906134a3565b60405180910390fd5b805181602001fd5b63150b7a0260e01b7bffffffffffffffffffffffffffffffffffffffffffffffffffffffff1916817bffffffffffffffffffffffffffffffffffffffffffffffffffffffff191614915050612424565b600190505b949350505050565b60606000821415612474576040518060400160405280600181526020017f300000000000000000000000000000000000000000000000000000000000000081525090506125d4565b600082905060005b600082146124a657808061248f906139b5565b915050600a8261249f9190613868565b915061247c565b60008167ffffffffffffffff8111156124e8577f4e487b7100000000000000000000000000000000000000000000000000000000600052604160045260246000fd5b6040519080825280601f01601f19166020018201604052801561251a5781602001600182028036833780820191505090505b5090505b600085146125cd576001826125339190613899565b9150600a8561254291906139fe565b603061254e9190613812565b60f81b81838151811061258a577f4e487b7100000000000000000000000000000000000000000000000000000000600052603260045260246000fd5b60200101907effffffffffffffffffffffffffffffffffffffffffffffffffffffffffffff1916908160001a905350600a856125c69190613868565b945061251e565b8093505050505b919050565b600080823b905060008111915050919050565b8280546125f890613983565b90600052602060002090601f01602090048101928261261a5760008555612661565b82601f1061263357805160ff1916838001178555612661565b82800160010185558215612661579182015b82811115612660578251825591602001919060010190612645565b5b50905061266e9190612672565b5090565b5b8082111561268b576000816000905550600101612673565b5090565b60006126a261269d8461376f565b61373e565b9050828152602081018484840111156126ba57600080fd5b6126c5848285613941565b509392505050565b60006126e06126db8461379f565b61373e565b9050828152602081018484840111156126f857600080fd5b612703848285613941565b509392505050565b60008135905061271a81613afc565b92915050565b60008135905061272f81613b13565b92915050565b60008135905061274481613b2a565b92915050565b60008151905061275981613b2a565b92915050565b600082601f83011261277057600080fd5b813561278084826020860161268f565b91505092915050565b600082601f83011261279a57600080fd5b81356127aa8482602086016126cd565b91505092915050565b6000813590506127c281613b41565b92915050565b6000602082840312156127da57600080fd5b60006127e88482850161270b565b91505092915050565b6000806040838503121561280457600080fd5b60006128128582860161270b565b92505060206128238582860161270b565b9150509250929050565b60008060006060848603121561284257600080fd5b60006128508682870161270b565b93505060206128618682870161270b565b9250506040612872868287016127b3565b9150509250925092565b6000806000806080858703121561289257600080fd5b60006128a08782880161270b565b94505060206128b18782880161270b565b93505060406128c2878288016127b3565b925050606085013567ffffffffffffffff8111156128df57600080fd5b6128eb8782880161275f565b91505092959194509250565b6000806040838503121561290a57600080fd5b60006129188582860161270b565b925050602061292985828601612720565b9150509250929050565b6000806040838503121561294657600080fd5b60006129548582860161270b565b9250506020612965858286016127b3565b9150509250929050565b60006020828403121561298157600080fd5b600061298f84828501612735565b91505092915050565b6000602082840312156129aa57600080fd5b60006129b88482850161274a565b91505092915050565b600080604083850312156129d457600080fd5b600083013567ffffffffffffffff8111156129ee57600080fd5b6129fa85828601612789565b925050602083013567ffffffffffffffff811115612a1757600080fd5b612a2385828601612789565b9150509250929050565b60008060408385031215612a4057600080fd5b600083013567ffffffffffffffff811115612a5a57600080fd5b612a6685828601612789565b9250506020612a77858286016127b3565b9150509250929050565b600060208284031215612a9357600080fd5b6000612aa1848285016127b3565b91505092915050565b60008060008060808587031215612ac057600080fd5b6000612ace878288016127b3565b9450506020612adf8782880161270b565b9350506040612af08782880161270b565b925050606085013567ffffffffffffffff811115612b0d57600080fd5b612b1987828801612789565b91505092959194509250565b612b2e816138cd565b82525050565b612b3d816138df565b82525050565b6000612b4e826137cf565b612b5881856137e5565b9350612b68818560208601613950565b612b7181613aeb565b840191505092915050565b6000612b87826137da565b612b9181856137f6565b9350612ba1818560208601613950565b612baa81613aeb565b840191505092915050565b6000612bc0826137da565b612bca8185613807565b9350612bda818560208601613950565b80840191505092915050565b6000612bf36027836137f6565b91507f49746172676f4e46543a20646f6320736574206f66206e6f6e6578697374656e60008301527f7420746f6b656e000000000000000000000000000000000000000000000000006020830152604082019050919050565b6000612c596032836137f6565b91507f4552433732313a207472616e7366657220746f206e6f6e20455243373231526560008301527f63656976657220696d706c656d656e74657200000000000000000000000000006020830152604082019050919050565b6000612cbf6026836137f6565b91507f4f776e61626c653a206e6577206f776e657220697320746865207a65726f206160008301527f64647265737300000000000000000000000000000000000000000000000000006020830152604082019050919050565b6000612d25601c836137f6565b91507f4552433732313a20746f6b656e20616c7265616479206d696e746564000000006000830152602082019050919050565b6000612d65602b836137f6565b91507f49746172676f4e46543a2063726561746f7220736574206f66206e6f6e65786960008301527f7374656e7420746f6b656e0000000000000000000000000000000000000000006020830152604082019050919050565b6000612dcb6024836137f6565b91507f4552433732313a207472616e7366657220746f20746865207a65726f2061646460008301527f72657373000000000000000000000000000000000000000000000000000000006020830152604082019050919050565b6000612e316019836137f6565b91507f4552433732313a20617070726f766520746f2063616c6c6572000000000000006000830152602082019050919050565b6000612e71602c836137f6565b91507f4552433732313a206f70657261746f7220717565727920666f72206e6f6e657860008301527f697374656e7420746f6b656e00000000000000000000000000000000000000006020830152604082019050919050565b6000612ed76038836137f6565b91507f4552433732313a20617070726f76652063616c6c6572206973206e6f74206f7760008301527f6e6572206e6f7220617070726f76656420666f7220616c6c00000000000000006020830152604082019050919050565b6000612f3d602a836137f6565b91507f4552433732313a2062616c616e636520717565727920666f7220746865207a6560008301527f726f2061646472657373000000000000000000000000000000000000000000006020830152604082019050919050565b6000612fa36029836137f6565b91507f4552433732313a206f776e657220717565727920666f72206e6f6e657869737460008301527f656e7420746f6b656e00000000000000000000000000000000000000000000006020830152604082019050919050565b6000613009602e836137f6565b91507f45524337323155524953746f726167653a2055524920736574206f66206e6f6e60008301527f6578697374656e7420746f6b656e0000000000000000000000000000000000006020830152604082019050919050565b600061306f602e836137f6565b91507f496e697469616c697a61626c653a20636f6e747261637420697320616c72656160008301527f647920696e697469616c697a65640000000000000000000000000000000000006020830152604082019050919050565b60006130d56020836137f6565b91507f4552433732313a206d696e7420746f20746865207a65726f20616464726573736000830152602082019050919050565b60006131156031836137f6565b91507f45524337323155524953746f726167653a2055524920717565727920666f722060008301527f6e6f6e6578697374656e7420746f6b656e0000000000000000000000000000006020830152604082019050919050565b600061317b602c836137f6565b91507f4552433732313a20617070726f76656420717565727920666f72206e6f6e657860008301527f697374656e7420746f6b656e00000000000000000000000000000000000000006020830152604082019050919050565b60006131e16020836137f6565b91507f4f776e61626c653a2063616c6c6572206973206e6f7420746865206f776e65726000830152602082019050919050565b60006132216029836137f6565b91507f4552433732313a207472616e73666572206f6620746f6b656e2074686174206960008301527f73206e6f74206f776e00000000000000000000000000000000000000000000006020830152604082019050919050565b6000613287602f836137f6565b91507f4552433732314d657461646174613a2055524920717565727920666f72206e6f60008301527f6e6578697374656e7420746f6b656e00000000000000000000000000000000006020830152604082019050919050565b60006132ed6021836137f6565b91507f4552433732313a20617070726f76616c20746f2063757272656e74206f776e6560008301527f72000000000000000000000000000000000000000000000000000000000000006020830152604082019050919050565b60006133536031836137f6565b91507f4552433732313a207472616e736665722063616c6c6572206973206e6f74206f60008301527f776e6572206e6f7220617070726f7665640000000000000000000000000000006020830152604082019050919050565b6133b581613937565b82525050565b60006133c78285612bb5565b91506133d38284612bb5565b91508190509392505050565b60006020820190506133f46000830184612b25565b92915050565b600060808201905061340f6000830187612b25565b61341c6020830186612b25565b61342960408301856133ac565b818103606083015261343b8184612b43565b905095945050505050565b600060208201905061345b6000830184612b34565b92915050565b6000602082019050818103600083015261347b8184612b7c565b905092915050565b6000602082019050818103600083015261349c81612be6565b9050919050565b600060208201905081810360008301526134bc81612c4c565b9050919050565b600060208201905081810360008301526134dc81612cb2565b9050919050565b600060208201905081810360008301526134fc81612d18565b9050919050565b6000602082019050818103600083015261351c81612d58565b9050919050565b6000602082019050818103600083015261353c81612dbe565b9050919050565b6000602082019050818103600083015261355c81612e24565b9050919050565b6000602082019050818103600083015261357c81612e64565b9050919050565b6000602082019050818103600083015261359c81612eca565b9050919050565b600060208201905081810360008301526135bc81612f30565b9050919050565b600060208201905081810360008301526135dc81612f96565b9050919050565b600060208201905081810360008301526135fc81612ffc565b9050919050565b6000602082019050818103600083015261361c81613062565b9050919050565b6000602082019050818103600083015261363c816130c8565b9050919050565b6000602082019050818103600083015261365c81613108565b9050919050565b6000602082019050818103600083015261367c8161316e565b9050919050565b6000602082019050818103600083015261369c816131d4565b9050919050565b600060208201905081810360008301526136bc81613214565b9050919050565b600060208201905081810360008301526136dc8161327a565b9050919050565b600060208201905081810360008301526136fc816132e0565b9050919050565b6000602082019050818103600083015261371c81613346565b9050919050565b600060208201905061373860008301846133ac565b92915050565b6000604051905081810181811067ffffffffffffffff8211171561376557613764613abc565b5b8060405250919050565b600067ffffffffffffffff82111561378a57613789613abc565b5b601f19601f8301169050602081019050919050565b600067ffffffffffffffff8211156137ba576137b9613abc565b5b601f19601f8301169050602081019050919050565b600081519050919050565b600081519050919050565b600082825260208201905092915050565b600082825260208201905092915050565b600081905092915050565b600061381d82613937565b915061382883613937565b9250827fffffffffffffffffffffffffffffffffffffffffffffffffffffffffffffffff0382111561385d5761385c613a2f565b5b828201905092915050565b600061387382613937565b915061387e83613937565b92508261388e5761388d613a5e565b5b828204905092915050565b60006138a482613937565b91506138af83613937565b9250828210156138c2576138c1613a2f565b5b828203905092915050565b60006138d882613917565b9050919050565b60008115159050919050565b60007fffffffff0000000000000000000000000000000000000000000000000000000082169050919050565b600073ffffffffffffffffffffffffffffffffffffffff82169050919050565b6000819050919050565b82818337600083830152505050565b60005b8381101561396e578082015181840152602081019050613953565b8381111561397d576000848401525b50505050565b6000600282049050600182168061399b57607f821691505b602082108114156139af576139ae613a8d565b5b50919050565b60006139c082613937565b91507fffffffffffffffffffffffffffffffffffffffffffffffffffffffffffffffff8214156139f3576139f2613a2f565b5b600182019050919050565b6000613a0982613937565b9150613a1483613937565b925082613a2457613a23613a5e565b5b828206905092915050565b7f4e487b7100000000000000000000000000000000000000000000000000000000600052601160045260246000fd5b7f4e487b7100000000000000000000000000000000000000000000000000000000600052601260045260246000fd5b7f4e487b7100000000000000000000000000000000000000000000000000000000600052602260045260246000fd5b7f4e487b7100000000000000000000000000000000000000000000000000000000600052604160045260246000fd5b6000601f19601f8301169050919050565b613b05816138cd565b8114613b1057600080fd5b50565b613b1c816138df565b8114613b2757600080fd5b50565b613b33816138eb565b8114613b3e57600080fd5b50565b613b4a81613937565b8114613b5557600080fd5b5056fea2646970667358221220d052dceb739a61b5faec2a181f497bdb0d07e1ed2a0bc5c6e42db6d03fb2d90464736f6c63430008000033",
  "immutableReferences": {},
  "source": "// SPDX-License-Identifier: MIT\npragma solidity ^0.8.0;\n\nimport \"@openzeppelin/contracts-upgradeable/token/ERC721/extensions/ERC721URIStorageUpgradeable.sol\";\nimport \"@openzeppelin/contracts-upgradeable/proxy/utils/Initializable.sol\";\nimport \"@openzeppelin/contracts-upgradeable/access/OwnableUpgradeable.sol\";\nimport \"@openzeppelin/contracts-upgradeable/utils/CountersUpgradeable.sol\";\n\n/**\n * @title ItargoNFT\n * ItargoNFT - a contract that serves as a bank. \n */\ncontract ItargoNFT is Initializable, ERC721URIStorageUpgradeable, OwnableUpgradeable {\n    function initialize(string memory name, string memory symbol) public initializer {\n        __ItargoNFT_init(name, symbol);\n    }\n    \n    using StringsUpgradeable for uint256;\n    using CountersUpgradeable for CountersUpgradeable.Counter;\n\n    // TODO:     .\n    CountersUpgradeable.Counter private _tokenIdTracker;\n\n    // Mapping from token ID to the creator's address.\n    mapping(uint256 => address) private _tokenCreators;\n\n    // Mapping from token ID to the doc.\n    mapping(uint256 => string) private _tokenDocs;\n\n    /**\n     * @dev Initializes the contract by setting a `name` and a `symbol` to the token collection.\n     */\n    function __ItargoNFT_init(string memory name_, string memory symbol_) internal initializer {\n        __Context_init_unchained();\n        __ERC165_init_unchained();\n        __ERC721_init_unchained(name_, symbol_);\n        __ERC721URIStorage_init_unchained();\n        __ItargoNFT_init_unchained(name_, symbol_);\n    }\n\n    function __ItargoNFT_init_unchained(string memory name_, string memory symbol_) internal initializer {\n    }\n    \n    function lazyMint(\n        uint256 tokenId,\n        address creator,\n        address receiver,\n        string memory _tokenURI\n    )\n        external\n        onlyOwner\n    {\n        // Create.\n        _mint(creator, tokenId);\n        _setTokenCreator(creator, tokenId);\n        _setTokenURI(tokenId, _tokenURI);\n\n        // Transfer.\n        safeTransferFrom(creator, receiver, tokenId);\n\n        _tokenIdTracker.increment();\n    }\n\n    /**\n     * @dev Sets `_tokenDoc` as the tokenDoc of `tokenId`.\n     *\n     * Requirements:\n     *\n     * - Can only be called by the owner.\n     * - `tokenId` must exist.\n     */\n    function setTokenDocs(string memory doc, uint256 tokenId) external onlyOwner {\n        require(_exists(tokenId), \"ItargoNFT: doc set of nonexistent token\");\n        _tokenDocs[tokenId] = doc;\n    }\n\n    /**\n     * @dev Gets the doc of the token.\n     * @param tokenId uint256 ID of the token.\n     * @return doc of the token id. \n     */\n    function docOf(uint256 tokenId) external view returns (string memory) {\n        return _tokenDocs[tokenId];\n    }\n\n    /**\n     * @dev Gets the creator of the token.\n     * @param tokenId uint256 ID of the token.\n     * @return address of the creator.\n     */\n    function creatorOf(uint256 tokenId) external view returns (address) {\n        return _tokenCreators[tokenId];\n    }\n\n    /**\n     * @dev Gets the current number of the Itargo NFT token.\n     * TODO: burn   , idTracker      \n     */\n    function count() public view returns (uint256) {\n        return _tokenIdTracker.current();\n    }\n\n    /**\n     * @dev Sets `_tokenCreator` as the creator of `tokenId`.\n     * private function.\n     *\n     * Requirements:\n     *\n     * - `tokenId` must exist.\n     */\n    function _setTokenCreator(address creator, uint256 tokenId) private {\n        require(_exists(tokenId), \"ItargoNFT: creator set of nonexistent token\");\n        _tokenCreators[tokenId] = creator;\n    }\n}",
  "sourcePath": "/Users/chanyoung_kim/workspace/itargo/digital-art/digital-art-ethereum/contracts/ItargoNFT.sol",
  "compiler": {
    "name": "solc",
    "version": "0.8.0+commit.c7dfd78e.Emscripten.clang"
  },
  "schemaVersion": "3.3.4",
  "updatedAt": "2021-04-12T12:09:55.843Z",
  "networkType": "ethereum",
  "devdoc": {
    "kind": "dev",
    "methods": {
      "approve(address,uint256)": {
        "details": "See {IERC721-approve}."
      },
      "balanceOf(address)": {
        "details": "See {IERC721-balanceOf}."
      },
      "count()": {
        "details": "Gets the current number of the Itargo NFT token. TODO: burn   , idTracker      "
      },
      "creatorOf(uint256)": {
        "details": "Gets the creator of the token.",
        "params": {
          "tokenId": "uint256 ID of the token."
        },
        "returns": {
          "_0": "address of the creator."
        }
      },
      "docOf(uint256)": {
        "details": "Gets the doc of the token.",
        "params": {
          "tokenId": "uint256 ID of the token."
        },
        "returns": {
          "_0": "doc of the token id. "
        }
      },
      "getApproved(uint256)": {
        "details": "See {IERC721-getApproved}."
      },
      "isApprovedForAll(address,address)": {
        "details": "See {IERC721-isApprovedForAll}."
      },
      "name()": {
        "details": "See {IERC721Metadata-name}."
      },
      "owner()": {
        "details": "Returns the address of the current owner."
      },
      "ownerOf(uint256)": {
        "details": "See {IERC721-ownerOf}."
      },
      "renounceOwnership()": {
        "details": "Leaves the contract without owner. It will not be possible to call `onlyOwner` functions anymore. Can only be called by the current owner. NOTE: Renouncing ownership will leave the contract without an owner, thereby removing any functionality that is only available to the owner."
      },
      "safeTransferFrom(address,address,uint256)": {
        "details": "See {IERC721-safeTransferFrom}."
      },
      "safeTransferFrom(address,address,uint256,bytes)": {
        "details": "See {IERC721-safeTransferFrom}."
      },
      "setApprovalForAll(address,bool)": {
        "details": "See {IERC721-setApprovalForAll}."
      },
      "setTokenDocs(string,uint256)": {
        "details": "Sets `_tokenDoc` as the tokenDoc of `tokenId`. Requirements: - Can only be called by the owner. - `tokenId` must exist."
      },
      "supportsInterface(bytes4)": {
        "details": "See {IERC165-supportsInterface}."
      },
      "symbol()": {
        "details": "See {IERC721Metadata-symbol}."
      },
      "tokenURI(uint256)": {
        "details": "See {IERC721Metadata-tokenURI}."
      },
      "transferFrom(address,address,uint256)": {
        "details": "See {IERC721-transferFrom}."
      },
      "transferOwnership(address)": {
        "details": "Transfers ownership of the contract to a new account (`newOwner`). Can only be called by the current owner."
      }
    },
    "title": "ItargoNFT ItargoNFT - a contract that serves as a bank. ",
    "version": 1
  },
  "userdoc": {
    "kind": "user",
    "methods": {},
    "version": 1
  }
}